{
  "contractName": "NFTApp",
  "abi": [
    {
      "inputs": [
        {
          "internalType": "contract Token",
          "name": "_token",
          "type": "address"
        }
      ],
      "stateMutability": "nonpayable",
      "type": "constructor"
    },
    {
      "anonymous": false,
      "inputs": [
        {
          "indexed": true,
          "internalType": "address",
          "name": "user",
          "type": "address"
        },
        {
          "indexed": false,
          "internalType": "uint256",
          "name": "tokenId",
          "type": "uint256"
        },
        {
          "indexed": false,
          "internalType": "uint256",
          "name": "price",
          "type": "uint256"
        }
      ],
      "name": "TokenMinted",
      "type": "event"
    },
    {
      "inputs": [
        {
          "internalType": "uint256",
          "name": "price",
          "type": "uint256"
        },
        {
          "internalType": "string",
          "name": "tokenURI",
          "type": "string"
        }
      ],
      "name": "mint",
      "outputs": [],
      "stateMutability": "nonpayable",
      "type": "function"
    },
    {
      "inputs": [
        {
          "internalType": "address payable",
          "name": "from",
          "type": "address"
        },
        {
          "internalType": "address",
          "name": "to",
          "type": "address"
        },
        {
          "internalType": "uint256",
          "name": "tokenId",
          "type": "uint256"
        }
      ],
      "name": "buy",
      "outputs": [],
      "stateMutability": "payable",
      "type": "function",
      "payable": true
    },
    {
      "inputs": [
        {
          "internalType": "uint256",
          "name": "tokenId",
          "type": "uint256"
        }
      ],
      "name": "burnNFT",
      "outputs": [],
      "stateMutability": "nonpayable",
      "type": "function"
    },
    {
      "inputs": [
        {
          "internalType": "uint256",
          "name": "price",
          "type": "uint256"
        },
        {
          "internalType": "uint256",
          "name": "tokenId",
          "type": "uint256"
        }
      ],
      "name": "editNFTPrice",
      "outputs": [],
      "stateMutability": "nonpayable",
      "type": "function"
    },
    {
      "inputs": [
        {
          "internalType": "uint256",
          "name": "tokenId",
          "type": "uint256"
        }
      ],
      "name": "getNFTInfo",
      "outputs": [
        {
          "internalType": "address",
          "name": "",
          "type": "address"
        },
        {
          "internalType": "uint256",
          "name": "",
          "type": "uint256"
        },
        {
          "internalType": "string",
          "name": "",
          "type": "string"
        },
        {
          "internalType": "uint256",
          "name": "",
          "type": "uint256"
        }
      ],
      "stateMutability": "view",
      "type": "function",
      "constant": true
    },
    {
      "inputs": [],
      "name": "getBalance",
      "outputs": [
        {
          "internalType": "uint256",
          "name": "",
          "type": "uint256"
        }
      ],
      "stateMutability": "view",
      "type": "function",
      "constant": true
    },
    {
      "inputs": [],
      "name": "getTokenIds",
      "outputs": [
        {
          "internalType": "uint256[]",
          "name": "",
          "type": "uint256[]"
        }
      ],
      "stateMutability": "view",
      "type": "function",
      "constant": true
    }
  ],
  "bytecode": "0x608060405234801561001057600080fd5b506040516112073803806112078339818101604052602081101561003357600080fd5b8101908080519060200190929190505050806000806101000a81548173ffffffffffffffffffffffffffffffffffffffff021916908373ffffffffffffffffffffffffffffffffffffffff16021790555050611173806100946000396000f3fe6080604052600436106100705760003560e01c80635963a6a91161004e5780635963a6a91461014957806367f718a91461018e57806377097fc8146101fa578063d188929f146102cc57610070565b806312065fe014610075578063153e66e6146100a05780632890e0d71461010e575b600080fd5b34801561008157600080fd5b5061008a6103ab565b6040518082815260200191505060405180910390f35b61010c600480360360608110156100b657600080fd5b81019080803573ffffffffffffffffffffffffffffffffffffffff169060200190929190803573ffffffffffffffffffffffffffffffffffffffff16906020019092919080359060200190929190505050610475565b005b34801561011a57600080fd5b506101476004803603602081101561013157600080fd5b81019080803590602001909291905050506106d3565b005b34801561015557600080fd5b5061018c6004803603604081101561016c57600080fd5b810190808035906020019092919080359060200190929190505050610890565b005b34801561019a57600080fd5b506101a3610a56565b6040518080602001828103825283818151815260200191508051906020019060200280838360005b838110156101e65780820151818401526020810190506101cb565b505050509050019250505060405180910390f35b34801561020657600080fd5b506102ca6004803603604081101561021d57600080fd5b81019080803590602001909291908035906020019064010000000081111561024457600080fd5b82018360208201111561025657600080fd5b8035906020019184600183028401116401000000008311171561027857600080fd5b91908080601f016020809104026020016040519081016040528093929190818152602001838380828437600081840152601f19601f820116905080830192505050505050509192919290505050610c74565b005b3480156102d857600080fd5b50610305600480360360208110156102ef57600080fd5b8101908080359060200190929190505050610e0d565b604051808573ffffffffffffffffffffffffffffffffffffffff16815260200184815260200180602001838152602001828103825284818151815260200191508051906020019080838360005b8381101561036d578082015181840152602081019050610352565b50505050905090810190601f16801561039a5780820380516001836020036101000a031916815260200191505b509550505050505060405180910390f35b60008060009054906101000a900473ffffffffffffffffffffffffffffffffffffffff1673ffffffffffffffffffffffffffffffffffffffff166370a08231336040518263ffffffff1660e01b8152600401808273ffffffffffffffffffffffffffffffffffffffff16815260200191505060206040518083038186803b15801561043557600080fd5b505afa158015610449573d6000803e3d6000fd5b505050506040513d602081101561045f57600080fd5b8101908080519060200190929190505050905090565b60008060009054906101000a900473ffffffffffffffffffffffffffffffffffffffff1673ffffffffffffffffffffffffffffffffffffffff166333a6de4f836040518263ffffffff1660e01b81526004018082815260200191505060206040518083038186803b1580156104e957600080fd5b505afa1580156104fd573d6000803e3d6000fd5b505050506040513d602081101561051357600080fd5b8101908080519060200190929190505050905034811461059b576040517f08c379a000000000000000000000000000000000000000000000000000000000815260040180806020018281038252601a8152602001807f506c656173652073656e6420636f72726563742070726963652e00000000000081525060200191505060405180910390fd5b8373ffffffffffffffffffffffffffffffffffffffff166108fc349081150290604051600060405180830381858888f193505050501580156105e1573d6000803e3d6000fd5b5060008054906101000a900473ffffffffffffffffffffffffffffffffffffffff1673ffffffffffffffffffffffffffffffffffffffff16635d742fd38585856040518463ffffffff1660e01b8152600401808473ffffffffffffffffffffffffffffffffffffffff1681526020018373ffffffffffffffffffffffffffffffffffffffff1681526020018281526020019350505050602060405180830381600087803b15801561069157600080fd5b505af11580156106a5573d6000803e3d6000fd5b505050506040513d60208110156106bb57600080fd5b81019080805190602001909291905050505050505050565b60008054906101000a900473ffffffffffffffffffffffffffffffffffffffff1673ffffffffffffffffffffffffffffffffffffffff16636352211e826040518263ffffffff1660e01b81526004018082815260200191505060206040518083038186803b15801561074457600080fd5b505afa158015610758573d6000803e3d6000fd5b505050506040513d602081101561076e57600080fd5b810190808051906020019092919050505073ffffffffffffffffffffffffffffffffffffffff163373ffffffffffffffffffffffffffffffffffffffff1614610802576040517f08c379a000000000000000000000000000000000000000000000000000000000815260040180806020018281038252602b8152602001806110e8602b913960400191505060405180910390fd5b60008054906101000a900473ffffffffffffffffffffffffffffffffffffffff1673ffffffffffffffffffffffffffffffffffffffff16632890e0d7826040518263ffffffff1660e01b815260040180828152602001915050600060405180830381600087803b15801561087557600080fd5b505af1158015610889573d6000803e3d6000fd5b5050505050565b60008054906101000a900473ffffffffffffffffffffffffffffffffffffffff1673ffffffffffffffffffffffffffffffffffffffff16636352211e826040518263ffffffff1660e01b81526004018082815260200191505060206040518083038186803b15801561090157600080fd5b505afa158015610915573d6000803e3d6000fd5b505050506040513d602081101561092b57600080fd5b810190808051906020019092919050505073ffffffffffffffffffffffffffffffffffffffff163373ffffffffffffffffffffffffffffffffffffffff16146109bf576040517f08c379a000000000000000000000000000000000000000000000000000000000815260040180806020018281038252602b815260200180611113602b913960400191505060405180910390fd5b60008054906101000a900473ffffffffffffffffffffffffffffffffffffffff1673ffffffffffffffffffffffffffffffffffffffff16635963a6a983836040518363ffffffff1660e01b81526004018083815260200182815260200192505050600060405180830381600087803b158015610a3a57600080fd5b505af1158015610a4e573d6000803e3d6000fd5b505050505050565b606060008060009054906101000a900473ffffffffffffffffffffffffffffffffffffffff1673ffffffffffffffffffffffffffffffffffffffff166370a08231336040518263ffffffff1660e01b8152600401808273ffffffffffffffffffffffffffffffffffffffff16815260200191505060206040518083038186803b158015610ae257600080fd5b505afa158015610af6573d6000803e3d6000fd5b505050506040513d6020811015610b0c57600080fd5b8101908080519060200190929190505050905060008167ffffffffffffffff81118015610b3857600080fd5b50604051908082528060200260200182016040528015610b675781602001602082028036833780820191505090505b50905060005b82811015610c6b5760008060009054906101000a900473ffffffffffffffffffffffffffffffffffffffff1673ffffffffffffffffffffffffffffffffffffffff16632f745c5933846040518363ffffffff1660e01b8152600401808373ffffffffffffffffffffffffffffffffffffffff1681526020018281526020019250505060206040518083038186803b158015610c0757600080fd5b505afa158015610c1b573d6000803e3d6000fd5b505050506040513d6020811015610c3157600080fd5b8101908080519060200190929190505050905080838381518110610c5157fe5b602002602001018181525050508080600101915050610b6d565b50809250505090565b60008060009054906101000a900473ffffffffffffffffffffffffffffffffffffffff1673ffffffffffffffffffffffffffffffffffffffff166365d98cd68484336040518463ffffffff1660e01b815260040180848152602001806020018373ffffffffffffffffffffffffffffffffffffffff168152602001828103825284818151815260200191508051906020019080838360005b83811015610d27578082015181840152602081019050610d0c565b50505050905090810190601f168015610d545780820380516001836020036101000a031916815260200191505b50945050505050602060405180830381600087803b158015610d7557600080fd5b505af1158015610d89573d6000803e3d6000fd5b505050506040513d6020811015610d9f57600080fd5b810190808051906020019092919050505090503373ffffffffffffffffffffffffffffffffffffffff167f96234cb3d6c373a1aaa06497a540bc166d4b0359243a088eaf95e21d7253d0be8285604051808381526020018281526020019250505060405180910390a2505050565b600080606060008060009054906101000a900473ffffffffffffffffffffffffffffffffffffffff1673ffffffffffffffffffffffffffffffffffffffff16636352211e866040518263ffffffff1660e01b81526004018082815260200191505060206040518083038186803b158015610e8657600080fd5b505afa158015610e9a573d6000803e3d6000fd5b505050506040513d6020811015610eb057600080fd5b810190808051906020019092919050505060008054906101000a900473ffffffffffffffffffffffffffffffffffffffff1673ffffffffffffffffffffffffffffffffffffffff166333a6de4f876040518263ffffffff1660e01b81526004018082815260200191505060206040518083038186803b158015610f3257600080fd5b505afa158015610f46573d6000803e3d6000fd5b505050506040513d6020811015610f5c57600080fd5b810190808051906020019092919050505060008054906101000a900473ffffffffffffffffffffffffffffffffffffffff1673ffffffffffffffffffffffffffffffffffffffff1663c87b56dd886040518263ffffffff1660e01b81526004018082815260200191505060006040518083038186803b158015610fde57600080fd5b505afa158015610ff2573d6000803e3d6000fd5b505050506040513d6000823e3d601f19601f82011682018060405250602081101561101c57600080fd5b810190808051604051939291908464010000000082111561103c57600080fd5b8382019150602082018581111561105257600080fd5b825186600182028301116401000000008211171561106f57600080fd5b8083526020830192505050908051906020019080838360005b838110156110a3578082015181840152602081019050611088565b50505050905090810190601f1680156110d05780820380516001836020036101000a031916815260200191505b50604052505050879350935093509350919350919356fe4f6e6c79206f776e6572206f662074686520746f6b656e2063616e206275726e2074686520746f6b656e2e4f6e6c79206f776e6572206f662074686520746f6b656e2063616e2065646974207468652070726963652ea26469706673582212208d26b4e64d666ab48dee3d4a8b3b1063e7f8ee3b03d3a666760f2c967842707d64736f6c63430007060033",
  "immutableReferences": {},
  "source": "// SPDX-License-Identifier: MIT\r\npragma solidity >=0.6.0 <0.8.0;\r\n\r\nimport \"./Token.sol\";\r\n\r\ncontract NFTApp {\r\n\r\n  Token private token;\r\n\r\n  event TokenMinted(address indexed user, uint256 tokenId, uint price);\r\n\r\n  constructor(Token _token) public {\r\n    token = _token;\r\n  }\r\n\r\n\r\n  function mint(uint price, string memory tokenURI) public{\r\n    uint256 tokenId = token.mintNFT(price, tokenURI,  msg.sender);\r\n    emit TokenMinted(msg.sender, tokenId, price);\r\n  }\r\n\r\n  function buy(address payable from, address to, uint256 tokenId) public payable {\r\n    uint256 NFTPrice = token.NFTPrices(tokenId);\r\n    require(NFTPrice == msg.value, \"Please send correct price.\");\r\n      from.transfer(msg.value);\r\n      token.buyNFT(from, to, tokenId);\r\n  }\r\n\r\n  function burnNFT(uint256 tokenId) public {\r\n    require(msg.sender == token.ownerOf(tokenId), \"Only owner of the token can burn the token.\");\r\n    token.burnNFT(tokenId);\r\n  }\r\n\r\n  function editNFTPrice(uint256 price, uint256 tokenId) public {\r\n    require(msg.sender == token.ownerOf(tokenId), \"Only owner of the token can edit the price.\");\r\n    token.editNFTPrice(price, tokenId);\r\n  }\r\n\r\n  function getNFTInfo(uint256 tokenId) public view returns(address, uint256, string memory, uint256) {\r\n    return (token.ownerOf(tokenId), token.NFTPrices(tokenId), token.tokenURI(tokenId), tokenId);\r\n  }\r\n\r\n  function getBalance() public view returns(uint256) {\r\n    return token.balanceOf(msg.sender);\r\n  }\r\n\r\n  function getTokenIds() public view returns(uint256[] memory) {\r\n    uint256 balance = token.balanceOf(msg.sender);\r\n    uint256[] memory tokenIds = new uint256[](balance);\r\n    for(uint256 i=0; i<balance; i++) {\r\n      uint256 tokenId = token.tokenOfOwnerByIndex(msg.sender, i);\r\n      tokenIds[i] = tokenId;\r\n    }\r\n\r\n    return tokenIds;\r\n\r\n  }\r\n\r\n\r\n  /* function withdraw() public {\r\n    require(isDeposited[msg.sender] == true, \"Error, no previous deposit\");\r\n    \r\n    uint userBalance = etherBalanceOf[msg.sender];\r\n    uint depositTime = block.timestamp - depositStart[msg.sender];\r\n\r\n    uint interestPerSecond = 31668017 * (userBalance / 1e16);\r\n    uint interest = interestPerSecond * depositTime;\r\n\r\n    msg.sender.transfer(userBalance);\r\n    token.mint(msg.sender, interest);\r\n\r\n    etherBalanceOf[msg.sender] = 0;\r\n    depositStart[msg.sender] = 0;\r\n    isDeposited[msg.sender] = false;\r\n\r\n    emit Withdraw(msg.sender, userBalance, depositTime, interest);\r\n  }\r\n\r\n  function borrow() payable public {\r\n    require(msg.value >= 1e16, \"Error, deposit must be >= 0.1 ETH\");\r\n    require(isBorrowed[msg.sender] == false, \"Error, user has an active loan!\");\r\n\r\n    etherCollateral[msg.sender] = etherCollateral[msg.sender] + msg.value;\r\n    uint tokenAmountToMint = msg.value / 2;\r\n    token.mint(msg.sender, tokenAmountToMint);\r\n\r\n    isBorrowed[msg.sender] = true;\r\n\r\n    emit Borrow(msg.sender, etherCollateral[msg.sender], tokenAmountToMint);\r\n  }\r\n\r\n  function payOff() public {\r\n    require(isBorrowed[msg.sender] == true, \"Error, user does not have an active loan!\");\r\n    require(token.transferFrom(msg.sender, address(this), etherCollateral[msg.sender] / 2), \"Error, can't receive tokens.\");\r\n\r\n    uint fee = etherCollateral[msg.sender] / 10;\r\n    msg.sender.transfer(etherCollateral[msg.sender] - fee);\r\n\r\n    etherCollateral[msg.sender] = 0;\r\n    isBorrowed[msg.sender] = false;\r\n\r\n    emit PayOff(msg.sender, fee);\r\n  } */\r\n}",
  "sourcePath": "D:\\DOSYALARIM\\Kodlar\\nft\\src\\contracts\\NFTApp.sol",
  "compiler": {
    "name": "solc",
    "version": "0.7.6+commit.7338295f.Emscripten.clang"
  },
  "schemaVersion": "3.4.3",
  "updatedAt": "2021-09-24T11:27:05.899Z",
  "networkType": "ethereum",
  "devdoc": {
    "kind": "dev",
    "methods": {},
    "version": 1
  },
  "userdoc": {
    "kind": "user",
    "methods": {},
    "version": 1
  }
}