{
  "contractName": "NFTApp",
  "abi": [
    {
      "inputs": [
        {
          "internalType": "contract Token",
          "name": "_token",
          "type": "address"
        }
      ],
      "stateMutability": "nonpayable",
      "type": "constructor"
    },
    {
      "anonymous": false,
      "inputs": [
        {
          "indexed": true,
          "internalType": "address",
          "name": "user",
          "type": "address"
        },
        {
          "indexed": false,
          "internalType": "uint256",
          "name": "collateralEtherAmount",
          "type": "uint256"
        },
        {
          "indexed": false,
          "internalType": "uint256",
          "name": "borrowedTokenAmount",
          "type": "uint256"
        }
      ],
      "name": "Borrow",
      "type": "event"
    },
    {
      "anonymous": false,
      "inputs": [
        {
          "indexed": true,
          "internalType": "address",
          "name": "user",
          "type": "address"
        },
        {
          "indexed": false,
          "internalType": "uint256",
          "name": "etherAmount",
          "type": "uint256"
        },
        {
          "indexed": false,
          "internalType": "uint256",
          "name": "timeStart",
          "type": "uint256"
        }
      ],
      "name": "Deposit",
      "type": "event"
    },
    {
      "anonymous": false,
      "inputs": [
        {
          "indexed": true,
          "internalType": "address",
          "name": "user",
          "type": "address"
        },
        {
          "indexed": false,
          "internalType": "uint256",
          "name": "fee",
          "type": "uint256"
        }
      ],
      "name": "PayOff",
      "type": "event"
    },
    {
      "anonymous": false,
      "inputs": [
        {
          "indexed": true,
          "internalType": "address",
          "name": "user",
          "type": "address"
        },
        {
          "indexed": false,
          "internalType": "uint256",
          "name": "tokenId",
          "type": "uint256"
        },
        {
          "indexed": false,
          "internalType": "uint256",
          "name": "price",
          "type": "uint256"
        }
      ],
      "name": "TokenMinted",
      "type": "event"
    },
    {
      "anonymous": false,
      "inputs": [
        {
          "indexed": true,
          "internalType": "address",
          "name": "user",
          "type": "address"
        },
        {
          "indexed": false,
          "internalType": "uint256",
          "name": "etherAmount",
          "type": "uint256"
        },
        {
          "indexed": false,
          "internalType": "uint256",
          "name": "depositTime",
          "type": "uint256"
        },
        {
          "indexed": false,
          "internalType": "uint256",
          "name": "interest",
          "type": "uint256"
        }
      ],
      "name": "Withdraw",
      "type": "event"
    },
    {
      "inputs": [
        {
          "internalType": "address",
          "name": "",
          "type": "address"
        }
      ],
      "name": "depositStart",
      "outputs": [
        {
          "internalType": "uint256",
          "name": "",
          "type": "uint256"
        }
      ],
      "stateMutability": "view",
      "type": "function",
      "constant": true
    },
    {
      "inputs": [
        {
          "internalType": "address",
          "name": "",
          "type": "address"
        }
      ],
      "name": "etherBalanceOf",
      "outputs": [
        {
          "internalType": "uint256",
          "name": "",
          "type": "uint256"
        }
      ],
      "stateMutability": "view",
      "type": "function",
      "constant": true
    },
    {
      "inputs": [
        {
          "internalType": "address",
          "name": "",
          "type": "address"
        }
      ],
      "name": "etherCollateral",
      "outputs": [
        {
          "internalType": "uint256",
          "name": "",
          "type": "uint256"
        }
      ],
      "stateMutability": "view",
      "type": "function",
      "constant": true
    },
    {
      "inputs": [
        {
          "internalType": "address",
          "name": "",
          "type": "address"
        }
      ],
      "name": "isBorrowed",
      "outputs": [
        {
          "internalType": "bool",
          "name": "",
          "type": "bool"
        }
      ],
      "stateMutability": "view",
      "type": "function",
      "constant": true
    },
    {
      "inputs": [
        {
          "internalType": "address",
          "name": "",
          "type": "address"
        }
      ],
      "name": "isDeposited",
      "outputs": [
        {
          "internalType": "bool",
          "name": "",
          "type": "bool"
        }
      ],
      "stateMutability": "view",
      "type": "function",
      "constant": true
    },
    {
      "inputs": [
        {
          "internalType": "address",
          "name": "",
          "type": "address"
        }
      ],
      "name": "nftWalletOfAddress",
      "outputs": [
        {
          "internalType": "address",
          "name": "",
          "type": "address"
        }
      ],
      "stateMutability": "view",
      "type": "function",
      "constant": true
    },
    {
      "inputs": [
        {
          "internalType": "string",
          "name": "tokenURI",
          "type": "string"
        },
        {
          "internalType": "uint256",
          "name": "price",
          "type": "uint256"
        }
      ],
      "name": "mint",
      "outputs": [],
      "stateMutability": "nonpayable",
      "type": "function"
    },
    {
      "inputs": [
        {
          "internalType": "address payable",
          "name": "from",
          "type": "address"
        },
        {
          "internalType": "address",
          "name": "to",
          "type": "address"
        },
        {
          "internalType": "uint256",
          "name": "tokenId",
          "type": "uint256"
        }
      ],
      "name": "buy",
      "outputs": [],
      "stateMutability": "payable",
      "type": "function",
      "payable": true
    },
    {
      "inputs": [
        {
          "internalType": "uint256",
          "name": "tokenId",
          "type": "uint256"
        }
      ],
      "name": "getNFTInfo",
      "outputs": [
        {
          "internalType": "address",
          "name": "",
          "type": "address"
        },
        {
          "internalType": "uint256",
          "name": "",
          "type": "uint256"
        },
        {
          "internalType": "string",
          "name": "",
          "type": "string"
        },
        {
          "internalType": "uint256",
          "name": "",
          "type": "uint256"
        }
      ],
      "stateMutability": "view",
      "type": "function",
      "constant": true
    },
    {
      "inputs": [
        {
          "internalType": "address",
          "name": "user",
          "type": "address"
        }
      ],
      "name": "getBalance",
      "outputs": [
        {
          "internalType": "uint256",
          "name": "",
          "type": "uint256"
        }
      ],
      "stateMutability": "view",
      "type": "function",
      "constant": true
    }
  ],
  "bytecode": "0x608060405234801561001057600080fd5b50604051610eb4380380610eb48339818101604052602081101561003357600080fd5b8101908080519060200190929190505050806000806101000a81548173ffffffffffffffffffffffffffffffffffffffff021916908373ffffffffffffffffffffffffffffffffffffffff16021790555050610e20806100946000396000f3fe6080604052600436106100915760003560e01c80638475d3fe116100595780638475d3fe14610307578063cdebd93214610382578063d188929f146103e9578063f8b2cb4f146104c8578063ff87930a1461052d57610091565b8063056b01ce14610096578063153e66e614610168578063179fc99f146101d65780632d18cdd91461023b57806373732024146102a0575b600080fd5b3480156100a257600080fd5b50610166600480360360408110156100b957600080fd5b81019080803590602001906401000000008111156100d657600080fd5b8201836020820111156100e857600080fd5b8035906020019184600183028401116401000000008311171561010a57600080fd5b91908080601f016020809104026020016040519081016040528093929190818152602001838380828437600081840152601f19601f82011690508083019250505050505050919291929080359060200190929190505050610592565b005b6101d46004803603606081101561017e57600080fd5b81019080803573ffffffffffffffffffffffffffffffffffffffff169060200190929190803573ffffffffffffffffffffffffffffffffffffffff1690602001909291908035906020019092919050505061072b565b005b3480156101e257600080fd5b50610225600480360360208110156101f957600080fd5b81019080803573ffffffffffffffffffffffffffffffffffffffff169060200190929190505050610989565b6040518082815260200191505060405180910390f35b34801561024757600080fd5b5061028a6004803603602081101561025e57600080fd5b81019080803573ffffffffffffffffffffffffffffffffffffffff1690602001909291905050506109a1565b6040518082815260200191505060405180910390f35b3480156102ac57600080fd5b506102ef600480360360208110156102c357600080fd5b81019080803573ffffffffffffffffffffffffffffffffffffffff1690602001909291905050506109b9565b60405180821515815260200191505060405180910390f35b34801561031357600080fd5b506103566004803603602081101561032a57600080fd5b81019080803573ffffffffffffffffffffffffffffffffffffffff1690602001909291905050506109d9565b604051808273ffffffffffffffffffffffffffffffffffffffff16815260200191505060405180910390f35b34801561038e57600080fd5b506103d1600480360360208110156103a557600080fd5b81019080803573ffffffffffffffffffffffffffffffffffffffff169060200190929190505050610a0c565b60405180821515815260200191505060405180910390f35b3480156103f557600080fd5b506104226004803603602081101561040c57600080fd5b8101908080359060200190929190505050610a2c565b604051808573ffffffffffffffffffffffffffffffffffffffff16815260200184815260200180602001838152602001828103825284818151815260200191508051906020019080838360005b8381101561048a57808201518184015260208101905061046f565b50505050905090810190601f1680156104b75780820380516001836020036101000a031916815260200191505b509550505050505060405180910390f35b3480156104d457600080fd5b50610517600480360360208110156104eb57600080fd5b81019080803573ffffffffffffffffffffffffffffffffffffffff169060200190929190505050610d06565b6040518082815260200191505060405180910390f35b34801561053957600080fd5b5061057c6004803603602081101561055057600080fd5b81019080803573ffffffffffffffffffffffffffffffffffffffff169060200190929190505050610dd2565b6040518082815260200191505060405180910390f35b60008060009054906101000a900473ffffffffffffffffffffffffffffffffffffffff1673ffffffffffffffffffffffffffffffffffffffff166363bae8c08484336040518463ffffffff1660e01b815260040180806020018481526020018373ffffffffffffffffffffffffffffffffffffffff168152602001828103825285818151815260200191508051906020019080838360005b8381101561064557808201518184015260208101905061062a565b50505050905090810190601f1680156106725780820380516001836020036101000a031916815260200191505b50945050505050602060405180830381600087803b15801561069357600080fd5b505af11580156106a7573d6000803e3d6000fd5b505050506040513d60208110156106bd57600080fd5b810190808051906020019092919050505090503373ffffffffffffffffffffffffffffffffffffffff167f96234cb3d6c373a1aaa06497a540bc166d4b0359243a088eaf95e21d7253d0be8284604051808381526020018281526020019250505060405180910390a2505050565b60008060009054906101000a900473ffffffffffffffffffffffffffffffffffffffff1673ffffffffffffffffffffffffffffffffffffffff166333a6de4f836040518263ffffffff1660e01b81526004018082815260200191505060206040518083038186803b15801561079f57600080fd5b505afa1580156107b3573d6000803e3d6000fd5b505050506040513d60208110156107c957600080fd5b81019080805190602001909291905050509050348114610851576040517f08c379a000000000000000000000000000000000000000000000000000000000815260040180806020018281038252601a8152602001807f506c656173652073656e6420636f72726563742070726963652e00000000000081525060200191505060405180910390fd5b8373ffffffffffffffffffffffffffffffffffffffff166108fc349081150290604051600060405180830381858888f19350505050158015610897573d6000803e3d6000fd5b5060008054906101000a900473ffffffffffffffffffffffffffffffffffffffff1673ffffffffffffffffffffffffffffffffffffffff16635d742fd38585856040518463ffffffff1660e01b8152600401808473ffffffffffffffffffffffffffffffffffffffff1681526020018373ffffffffffffffffffffffffffffffffffffffff1681526020018281526020019350505050602060405180830381600087803b15801561094757600080fd5b505af115801561095b573d6000803e3d6000fd5b505050506040513d602081101561097157600080fd5b81019080805190602001909291905050505050505050565b60026020528060005260406000206000915090505481565b60066020528060005260406000206000915090505481565b60046020528060005260406000206000915054906101000a900460ff1681565b60016020528060005260406000206000915054906101000a900473ffffffffffffffffffffffffffffffffffffffff1681565b60056020528060005260406000206000915054906101000a900460ff1681565b600080606060008060009054906101000a900473ffffffffffffffffffffffffffffffffffffffff1673ffffffffffffffffffffffffffffffffffffffff16636352211e866040518263ffffffff1660e01b81526004018082815260200191505060206040518083038186803b158015610aa557600080fd5b505afa158015610ab9573d6000803e3d6000fd5b505050506040513d6020811015610acf57600080fd5b810190808051906020019092919050505060008054906101000a900473ffffffffffffffffffffffffffffffffffffffff1673ffffffffffffffffffffffffffffffffffffffff166333a6de4f876040518263ffffffff1660e01b81526004018082815260200191505060206040518083038186803b158015610b5157600080fd5b505afa158015610b65573d6000803e3d6000fd5b505050506040513d6020811015610b7b57600080fd5b810190808051906020019092919050505060008054906101000a900473ffffffffffffffffffffffffffffffffffffffff1673ffffffffffffffffffffffffffffffffffffffff1663c87b56dd886040518263ffffffff1660e01b81526004018082815260200191505060006040518083038186803b158015610bfd57600080fd5b505afa158015610c11573d6000803e3d6000fd5b505050506040513d6000823e3d601f19601f820116820180604052506020811015610c3b57600080fd5b8101908080516040519392919084640100000000821115610c5b57600080fd5b83820191506020820185811115610c7157600080fd5b8251866001820283011164010000000082111715610c8e57600080fd5b8083526020830192505050908051906020019080838360005b83811015610cc2578082015181840152602081019050610ca7565b50505050905090810190601f168015610cef5780820380516001836020036101000a031916815260200191505b506040525050508793509350935093509193509193565b60008060009054906101000a900473ffffffffffffffffffffffffffffffffffffffff1673ffffffffffffffffffffffffffffffffffffffff166370a08231836040518263ffffffff1660e01b8152600401808273ffffffffffffffffffffffffffffffffffffffff16815260200191505060206040518083038186803b158015610d9057600080fd5b505afa158015610da4573d6000803e3d6000fd5b505050506040513d6020811015610dba57600080fd5b81019080805190602001909291905050509050919050565b6003602052806000526040600020600091509050548156fea26469706673582212202346ec4cbe4ae127bb32b15a136d66bc407e53d3c546c0dd53567c1cd0a0f30564736f6c63430007060033",
  "immutableReferences": {},
  "source": "// SPDX-License-Identifier: MIT\r\npragma solidity >=0.6.0 <0.8.0;\r\n\r\nimport \"./Token.sol\";\r\nimport \"./Receiver.sol\";\r\n\r\ncontract NFTApp {\r\n\r\n  Token private token;\r\n\r\n  mapping(address => address) public nftWalletOfAddress;\r\n\r\n  mapping(address => uint) public etherBalanceOf;\r\n  mapping(address => uint) public depositStart;\r\n  mapping(address => bool) public isDeposited;\r\n  mapping(address => bool) public isBorrowed;\r\n  mapping(address => uint) public etherCollateral;\r\n\r\n  event Deposit(address indexed user, uint etherAmount, uint timeStart);\r\n  event Withdraw(address indexed user, uint etherAmount, uint depositTime, uint interest);\r\n  event Borrow(address indexed user, uint collateralEtherAmount, uint borrowedTokenAmount);\r\n  event PayOff(address indexed user, uint fee);\r\n\r\n  event TokenMinted(address indexed user, uint256 tokenId, uint price);\r\n\r\n  constructor(Token _token) public {\r\n    token = _token;\r\n  }\r\n\r\n\r\n  function mint(string memory tokenURI, uint price) public{\r\n    uint256 tokenId = token.mintNFT(tokenURI, price, msg.sender);\r\n    emit TokenMinted(msg.sender, tokenId, price);\r\n  }\r\n\r\n  function buy(address payable from, address to, uint256 tokenId) public payable {\r\n    uint256 NFTPrice = token.NFTPrices(tokenId);\r\n    require(NFTPrice == msg.value, \"Please send correct price.\");\r\n      from.transfer(msg.value);\r\n      token.buyNFT(from, to, tokenId);\r\n  }\r\n\r\n  function getNFTInfo(uint256 tokenId) public view returns(address, uint256, string memory, uint256) {\r\n    return (token.ownerOf(tokenId), token.NFTPrices(tokenId), token.tokenURI(tokenId), tokenId);\r\n  }\r\n\r\n  function getBalance(address user) public view returns(uint256) {\r\n    return token.balanceOf(user);\r\n  }\r\n\r\n\r\n  /* function withdraw() public {\r\n    require(isDeposited[msg.sender] == true, \"Error, no previous deposit\");\r\n    \r\n    uint userBalance = etherBalanceOf[msg.sender];\r\n    uint depositTime = block.timestamp - depositStart[msg.sender];\r\n\r\n    uint interestPerSecond = 31668017 * (userBalance / 1e16);\r\n    uint interest = interestPerSecond * depositTime;\r\n\r\n    msg.sender.transfer(userBalance);\r\n    token.mint(msg.sender, interest);\r\n\r\n    etherBalanceOf[msg.sender] = 0;\r\n    depositStart[msg.sender] = 0;\r\n    isDeposited[msg.sender] = false;\r\n\r\n    emit Withdraw(msg.sender, userBalance, depositTime, interest);\r\n  }\r\n\r\n  function borrow() payable public {\r\n    require(msg.value >= 1e16, \"Error, deposit must be >= 0.1 ETH\");\r\n    require(isBorrowed[msg.sender] == false, \"Error, user has an active loan!\");\r\n\r\n    etherCollateral[msg.sender] = etherCollateral[msg.sender] + msg.value;\r\n    uint tokenAmountToMint = msg.value / 2;\r\n    token.mint(msg.sender, tokenAmountToMint);\r\n\r\n    isBorrowed[msg.sender] = true;\r\n\r\n    emit Borrow(msg.sender, etherCollateral[msg.sender], tokenAmountToMint);\r\n  }\r\n\r\n  function payOff() public {\r\n    require(isBorrowed[msg.sender] == true, \"Error, user does not have an active loan!\");\r\n    require(token.transferFrom(msg.sender, address(this), etherCollateral[msg.sender] / 2), \"Error, can't receive tokens.\");\r\n\r\n    uint fee = etherCollateral[msg.sender] / 10;\r\n    msg.sender.transfer(etherCollateral[msg.sender] - fee);\r\n\r\n    etherCollateral[msg.sender] = 0;\r\n    isBorrowed[msg.sender] = false;\r\n\r\n    emit PayOff(msg.sender, fee);\r\n  } */\r\n}",
  "sourcePath": "D:\\DOSYALARIM\\Kodlar\\nft\\src\\contracts\\NFTApp.sol",
  "compiler": {
    "name": "solc",
    "version": "0.7.6+commit.7338295f.Emscripten.clang"
  },
  "schemaVersion": "3.4.3",
  "updatedAt": "2021-09-23T13:50:27.923Z",
  "networkType": "ethereum",
  "devdoc": {
    "kind": "dev",
    "methods": {},
    "version": 1
  },
  "userdoc": {
    "kind": "user",
    "methods": {},
    "version": 1
  }
}