{
  "contractName": "Token",
  "abi": [
    {
      "inputs": [],
      "stateMutability": "nonpayable",
      "type": "constructor"
    },
    {
      "anonymous": false,
      "inputs": [
        {
          "indexed": true,
          "internalType": "address",
          "name": "owner",
          "type": "address"
        },
        {
          "indexed": true,
          "internalType": "address",
          "name": "approved",
          "type": "address"
        },
        {
          "indexed": true,
          "internalType": "uint256",
          "name": "tokenId",
          "type": "uint256"
        }
      ],
      "name": "Approval",
      "type": "event"
    },
    {
      "anonymous": false,
      "inputs": [
        {
          "indexed": true,
          "internalType": "address",
          "name": "owner",
          "type": "address"
        },
        {
          "indexed": true,
          "internalType": "address",
          "name": "operator",
          "type": "address"
        },
        {
          "indexed": false,
          "internalType": "bool",
          "name": "approved",
          "type": "bool"
        }
      ],
      "name": "ApprovalForAll",
      "type": "event"
    },
    {
      "anonymous": false,
      "inputs": [
        {
          "indexed": true,
          "internalType": "address",
          "name": "from",
          "type": "address"
        },
        {
          "indexed": false,
          "internalType": "address",
          "name": "to",
          "type": "address"
        }
      ],
      "name": "MinterChanged",
      "type": "event"
    },
    {
      "anonymous": false,
      "inputs": [
        {
          "indexed": true,
          "internalType": "address",
          "name": "from",
          "type": "address"
        },
        {
          "indexed": true,
          "internalType": "address",
          "name": "to",
          "type": "address"
        },
        {
          "indexed": true,
          "internalType": "uint256",
          "name": "tokenId",
          "type": "uint256"
        }
      ],
      "name": "Transfer",
      "type": "event"
    },
    {
      "inputs": [
        {
          "internalType": "uint256",
          "name": "",
          "type": "uint256"
        }
      ],
      "name": "NFTPrices",
      "outputs": [
        {
          "internalType": "uint256",
          "name": "",
          "type": "uint256"
        }
      ],
      "stateMutability": "view",
      "type": "function"
    },
    {
      "inputs": [
        {
          "internalType": "address",
          "name": "to",
          "type": "address"
        },
        {
          "internalType": "uint256",
          "name": "tokenId",
          "type": "uint256"
        }
      ],
      "name": "approve",
      "outputs": [],
      "stateMutability": "nonpayable",
      "type": "function"
    },
    {
      "inputs": [
        {
          "internalType": "address",
          "name": "owner",
          "type": "address"
        }
      ],
      "name": "balanceOf",
      "outputs": [
        {
          "internalType": "uint256",
          "name": "",
          "type": "uint256"
        }
      ],
      "stateMutability": "view",
      "type": "function"
    },
    {
      "inputs": [],
      "name": "baseURI",
      "outputs": [
        {
          "internalType": "string",
          "name": "",
          "type": "string"
        }
      ],
      "stateMutability": "view",
      "type": "function"
    },
    {
      "inputs": [
        {
          "internalType": "uint256",
          "name": "tokenId",
          "type": "uint256"
        }
      ],
      "name": "getApproved",
      "outputs": [
        {
          "internalType": "address",
          "name": "",
          "type": "address"
        }
      ],
      "stateMutability": "view",
      "type": "function"
    },
    {
      "inputs": [
        {
          "internalType": "address",
          "name": "owner",
          "type": "address"
        },
        {
          "internalType": "address",
          "name": "operator",
          "type": "address"
        }
      ],
      "name": "isApprovedForAll",
      "outputs": [
        {
          "internalType": "bool",
          "name": "",
          "type": "bool"
        }
      ],
      "stateMutability": "view",
      "type": "function"
    },
    {
      "inputs": [],
      "name": "minter",
      "outputs": [
        {
          "internalType": "address",
          "name": "",
          "type": "address"
        }
      ],
      "stateMutability": "view",
      "type": "function"
    },
    {
      "inputs": [],
      "name": "name",
      "outputs": [
        {
          "internalType": "string",
          "name": "",
          "type": "string"
        }
      ],
      "stateMutability": "view",
      "type": "function"
    },
    {
      "inputs": [
        {
          "internalType": "uint256",
          "name": "tokenId",
          "type": "uint256"
        }
      ],
      "name": "ownerOf",
      "outputs": [
        {
          "internalType": "address",
          "name": "",
          "type": "address"
        }
      ],
      "stateMutability": "view",
      "type": "function"
    },
    {
      "inputs": [
        {
          "internalType": "address",
          "name": "from",
          "type": "address"
        },
        {
          "internalType": "address",
          "name": "to",
          "type": "address"
        },
        {
          "internalType": "uint256",
          "name": "tokenId",
          "type": "uint256"
        }
      ],
      "name": "safeTransferFrom",
      "outputs": [],
      "stateMutability": "nonpayable",
      "type": "function"
    },
    {
      "inputs": [
        {
          "internalType": "address",
          "name": "from",
          "type": "address"
        },
        {
          "internalType": "address",
          "name": "to",
          "type": "address"
        },
        {
          "internalType": "uint256",
          "name": "tokenId",
          "type": "uint256"
        },
        {
          "internalType": "bytes",
          "name": "_data",
          "type": "bytes"
        }
      ],
      "name": "safeTransferFrom",
      "outputs": [],
      "stateMutability": "nonpayable",
      "type": "function"
    },
    {
      "inputs": [
        {
          "internalType": "address",
          "name": "operator",
          "type": "address"
        },
        {
          "internalType": "bool",
          "name": "approved",
          "type": "bool"
        }
      ],
      "name": "setApprovalForAll",
      "outputs": [],
      "stateMutability": "nonpayable",
      "type": "function"
    },
    {
      "inputs": [
        {
          "internalType": "bytes4",
          "name": "interfaceId",
          "type": "bytes4"
        }
      ],
      "name": "supportsInterface",
      "outputs": [
        {
          "internalType": "bool",
          "name": "",
          "type": "bool"
        }
      ],
      "stateMutability": "view",
      "type": "function"
    },
    {
      "inputs": [],
      "name": "symbol",
      "outputs": [
        {
          "internalType": "string",
          "name": "",
          "type": "string"
        }
      ],
      "stateMutability": "view",
      "type": "function"
    },
    {
      "inputs": [
        {
          "internalType": "uint256",
          "name": "index",
          "type": "uint256"
        }
      ],
      "name": "tokenByIndex",
      "outputs": [
        {
          "internalType": "uint256",
          "name": "",
          "type": "uint256"
        }
      ],
      "stateMutability": "view",
      "type": "function"
    },
    {
      "inputs": [
        {
          "internalType": "address",
          "name": "owner",
          "type": "address"
        },
        {
          "internalType": "uint256",
          "name": "index",
          "type": "uint256"
        }
      ],
      "name": "tokenOfOwnerByIndex",
      "outputs": [
        {
          "internalType": "uint256",
          "name": "",
          "type": "uint256"
        }
      ],
      "stateMutability": "view",
      "type": "function"
    },
    {
      "inputs": [
        {
          "internalType": "uint256",
          "name": "tokenId",
          "type": "uint256"
        }
      ],
      "name": "tokenURI",
      "outputs": [
        {
          "internalType": "string",
          "name": "",
          "type": "string"
        }
      ],
      "stateMutability": "view",
      "type": "function"
    },
    {
      "inputs": [],
      "name": "totalSupply",
      "outputs": [
        {
          "internalType": "uint256",
          "name": "",
          "type": "uint256"
        }
      ],
      "stateMutability": "view",
      "type": "function"
    },
    {
      "inputs": [
        {
          "internalType": "uint256",
          "name": "price",
          "type": "uint256"
        },
        {
          "internalType": "string",
          "name": "tokenURI",
          "type": "string"
        },
        {
          "internalType": "address",
          "name": "creator",
          "type": "address"
        }
      ],
      "name": "mintNFT",
      "outputs": [
        {
          "internalType": "uint256",
          "name": "",
          "type": "uint256"
        }
      ],
      "stateMutability": "nonpayable",
      "type": "function"
    },
    {
      "inputs": [
        {
          "internalType": "address",
          "name": "from",
          "type": "address"
        },
        {
          "internalType": "address",
          "name": "to",
          "type": "address"
        },
        {
          "internalType": "uint256",
          "name": "tokenId",
          "type": "uint256"
        }
      ],
      "name": "buyNFT",
      "outputs": [
        {
          "internalType": "bool",
          "name": "",
          "type": "bool"
        }
      ],
      "stateMutability": "payable",
      "type": "function"
    },
    {
      "inputs": [
        {
          "internalType": "uint256",
          "name": "tokenId",
          "type": "uint256"
        }
      ],
      "name": "burnNFT",
      "outputs": [],
      "stateMutability": "nonpayable",
      "type": "function"
    },
    {
      "inputs": [
        {
          "internalType": "address",
          "name": "from",
          "type": "address"
        },
        {
          "internalType": "address",
          "name": "to",
          "type": "address"
        },
        {
          "internalType": "uint256",
          "name": "tokenId",
          "type": "uint256"
        }
      ],
      "name": "transferFrom",
      "outputs": [],
      "stateMutability": "nonpayable",
      "type": "function"
    },
    {
      "inputs": [
        {
          "internalType": "address",
          "name": "NFTApp",
          "type": "address"
        }
      ],
      "name": "passMinterRole",
      "outputs": [
        {
          "internalType": "bool",
          "name": "",
          "type": "bool"
        }
      ],
      "stateMutability": "nonpayable",
      "type": "function"
    }
  ],
  "bytecode": "0x60806040523480156200001157600080fd5b506040518060400160405280600981526020017f426172616b614e465400000000000000000000000000000000000000000000008152506040518060400160405280600481526020017f424e465400000000000000000000000000000000000000000000000000000000815250620000966301ffc9a760e01b6200015960201b60201c565b8160069080519060200190620000ae92919062000262565b508060079080519060200190620000c792919062000262565b50620000e06380ac58cd60e01b6200015960201b60201c565b620000f8635b5e139f60e01b6200015960201b60201c565b6200011063780e9d6360e01b6200015960201b60201c565b505033600c60006101000a81548173ffffffffffffffffffffffffffffffffffffffff021916908373ffffffffffffffffffffffffffffffffffffffff16021790555062000318565b63ffffffff60e01b817bffffffffffffffffffffffffffffffffffffffffffffffffffffffff19161415620001f6576040517f08c379a000000000000000000000000000000000000000000000000000000000815260040180806020018281038252601c8152602001807f4552433136353a20696e76616c696420696e746572666163652069640000000081525060200191505060405180910390fd5b6001600080837bffffffffffffffffffffffffffffffffffffffffffffffffffffffff19167bffffffffffffffffffffffffffffffffffffffffffffffffffffffff1916815260200190815260200160002060006101000a81548160ff02191690831515021790555050565b828054600181600116156101000203166002900490600052602060002090601f0160209004810192826200029a5760008555620002e6565b82601f10620002b557805160ff1916838001178555620002e6565b82800160010185558215620002e6579182015b82811115620002e5578251825591602001919060010190620002c8565b5b509050620002f59190620002f9565b5090565b5b8082111562000314576000816000905550600101620002fa565b5090565b6133d580620003286000396000f3fe6080604052600436106101405760003560e01c80634f6ccce7116100b657806395d89b411161006f57806395d89b4114610893578063a22cb46514610923578063b88d4fde14610980578063c87b56dd14610a92578063d7fc5b1514610b46578063e985e9c514610bad57610140565b80634f6ccce7146105605780635d742fd3146105af5780636352211e1461063357806365d98cd6146106985780636c0360eb1461079e57806370a082311461082e57610140565b806318160ddd1161010857806318160ddd1461034657806323b872dd146103715780632890e0d7146103ec5780632f745c591461042757806333a6de4f1461049657806342842e0e146104e557610140565b806301ffc9a71461014557806306fdde03146101b55780630754617214610245578063081812fc14610286578063095ea7b3146102eb575b600080fd5b34801561015157600080fd5b5061019d6004803603602081101561016857600080fd5b8101908080357bffffffffffffffffffffffffffffffffffffffffffffffffffffffff19169060200190929190505050610c34565b60405180821515815260200191505060405180910390f35b3480156101c157600080fd5b506101ca610c9b565b6040518080602001828103825283818151815260200191508051906020019080838360005b8381101561020a5780820151818401526020810190506101ef565b50505050905090810190601f1680156102375780820380516001836020036101000a031916815260200191505b509250505060405180910390f35b34801561025157600080fd5b5061025a610d3d565b604051808273ffffffffffffffffffffffffffffffffffffffff16815260200191505060405180910390f35b34801561029257600080fd5b506102bf600480360360208110156102a957600080fd5b8101908080359060200190929190505050610d63565b604051808273ffffffffffffffffffffffffffffffffffffffff16815260200191505060405180910390f35b3480156102f757600080fd5b506103446004803603604081101561030e57600080fd5b81019080803573ffffffffffffffffffffffffffffffffffffffff16906020019092919080359060200190929190505050610dfe565b005b34801561035257600080fd5b5061035b610f42565b6040518082815260200191505060405180910390f35b34801561037d57600080fd5b506103ea6004803603606081101561039457600080fd5b81019080803573ffffffffffffffffffffffffffffffffffffffff169060200190929190803573ffffffffffffffffffffffffffffffffffffffff16906020019092919080359060200190929190505050610f53565b005b3480156103f857600080fd5b506104256004803603602081101561040f57600080fd5b8101908080359060200190929190505050610f63565b005b34801561043357600080fd5b506104806004803603604081101561044a57600080fd5b81019080803573ffffffffffffffffffffffffffffffffffffffff16906020019092919080359060200190929190505050610f6f565b6040518082815260200191505060405180910390f35b3480156104a257600080fd5b506104cf600480360360208110156104b957600080fd5b8101908080359060200190929190505050610fca565b6040518082815260200191505060405180910390f35b3480156104f157600080fd5b5061055e6004803603606081101561050857600080fd5b81019080803573ffffffffffffffffffffffffffffffffffffffff169060200190929190803573ffffffffffffffffffffffffffffffffffffffff16906020019092919080359060200190929190505050610fe2565b005b34801561056c57600080fd5b506105996004803603602081101561058357600080fd5b8101908080359060200190929190505050611002565b6040518082815260200191505060405180910390f35b61061b600480360360608110156105c557600080fd5b81019080803573ffffffffffffffffffffffffffffffffffffffff169060200190929190803573ffffffffffffffffffffffffffffffffffffffff16906020019092919080359060200190929190505050611025565b60405180821515815260200191505060405180910390f35b34801561063f57600080fd5b5061066c6004803603602081101561065657600080fd5b8101908080359060200190929190505050611039565b604051808273ffffffffffffffffffffffffffffffffffffffff16815260200191505060405180910390f35b3480156106a457600080fd5b50610788600480360360608110156106bb57600080fd5b8101908080359060200190929190803590602001906401000000008111156106e257600080fd5b8201836020820111156106f457600080fd5b8035906020019184600183028401116401000000008311171561071657600080fd5b91908080601f016020809104026020016040519081016040528093929190818152602001838380828437600081840152601f19601f820116905080830192505050505050509192919290803573ffffffffffffffffffffffffffffffffffffffff169060200190929190505050611070565b6040518082815260200191505060405180910390f35b3480156107aa57600080fd5b506107b3611167565b6040518080602001828103825283818151815260200191508051906020019080838360005b838110156107f35780820151818401526020810190506107d8565b50505050905090810190601f1680156108205780820380516001836020036101000a031916815260200191505b509250505060405180910390f35b34801561083a57600080fd5b5061087d6004803603602081101561085157600080fd5b81019080803573ffffffffffffffffffffffffffffffffffffffff169060200190929190505050611209565b6040518082815260200191505060405180910390f35b34801561089f57600080fd5b506108a86112de565b6040518080602001828103825283818151815260200191508051906020019080838360005b838110156108e85780820151818401526020810190506108cd565b50505050905090810190601f1680156109155780820380516001836020036101000a031916815260200191505b509250505060405180910390f35b34801561092f57600080fd5b5061097e6004803603604081101561094657600080fd5b81019080803573ffffffffffffffffffffffffffffffffffffffff169060200190929190803515159060200190929190505050611380565b005b34801561098c57600080fd5b50610a90600480360360808110156109a357600080fd5b81019080803573ffffffffffffffffffffffffffffffffffffffff169060200190929190803573ffffffffffffffffffffffffffffffffffffffff1690602001909291908035906020019092919080359060200190640100000000811115610a0a57600080fd5b820183602082011115610a1c57600080fd5b80359060200191846001830284011164010000000083111715610a3e57600080fd5b91908080601f016020809104026020016040519081016040528093929190818152602001838380828437600081840152601f19601f820116905080830192505050505050509192919290505050611536565b005b348015610a9e57600080fd5b50610acb60048036036020811015610ab557600080fd5b81019080803590602001909291905050506115ae565b6040518080602001828103825283818151815260200191508051906020019080838360005b83811015610b0b578082015181840152602081019050610af0565b50505050905090810190601f168015610b385780820380516001836020036101000a031916815260200191505b509250505060405180910390f35b348015610b5257600080fd5b50610b9560048036036020811015610b6957600080fd5b81019080803573ffffffffffffffffffffffffffffffffffffffff169060200190929190505050611897565b60405180821515815260200191505060405180910390f35b348015610bb957600080fd5b50610c1c60048036036040811015610bd057600080fd5b81019080803573ffffffffffffffffffffffffffffffffffffffff169060200190929190803573ffffffffffffffffffffffffffffffffffffffff1690602001909291905050506119ed565b60405180821515815260200191505060405180910390f35b6000806000837bffffffffffffffffffffffffffffffffffffffffffffffffffffffff19167bffffffffffffffffffffffffffffffffffffffffffffffffffffffff1916815260200190815260200160002060009054906101000a900460ff169050919050565b606060068054600181600116156101000203166002900480601f016020809104026020016040519081016040528092919081815260200182805460018160011615610100020316600290048015610d335780601f10610d0857610100808354040283529160200191610d33565b820191906000526020600020905b815481529060010190602001808311610d1657829003601f168201915b5050505050905090565b600c60009054906101000a900473ffffffffffffffffffffffffffffffffffffffff1681565b6000610d6e82611a81565b610dc3576040517f08c379a000000000000000000000000000000000000000000000000000000000815260040180806020018281038252602c815260200180613271602c913960400191505060405180910390fd5b6004600083815260200190815260200160002060009054906101000a900473ffffffffffffffffffffffffffffffffffffffff169050919050565b6000610e0982611039565b90508073ffffffffffffffffffffffffffffffffffffffff168373ffffffffffffffffffffffffffffffffffffffff161415610e90576040517f08c379a00000000000000000000000000000000000000000000000000000000081526004018080602001828103825260218152602001806133216021913960400191505060405180910390fd5b8073ffffffffffffffffffffffffffffffffffffffff16610eaf611a9e565b73ffffffffffffffffffffffffffffffffffffffff161480610ede5750610edd81610ed8611a9e565b6119ed565b5b610f33576040517f08c379a00000000000000000000000000000000000000000000000000000000081526004018080602001828103825260388152602001806131996038913960400191505060405180910390fd5b610f3d8383611aa6565b505050565b6000610f4e6002611b5f565b905090565b610f5e838383611b74565b505050565b610f6c81611db7565b50565b6000610fc282600160008673ffffffffffffffffffffffffffffffffffffffff1673ffffffffffffffffffffffffffffffffffffffff168152602001908152602001600020611ef190919063ffffffff16565b905092915050565b600b6020528060005260406000206000915090505481565b610ffd83838360405180602001604052806000815250611536565b505050565b600080611019836002611f0b90919063ffffffff16565b50905080915050919050565b6000611032848484610f53565b9392505050565b600061106982604051806060016040528060298152602001613226602991396002611f379092919063ffffffff16565b9050919050565b6000600c60009054906101000a900473ffffffffffffffffffffffffffffffffffffffff1673ffffffffffffffffffffffffffffffffffffffff163373ffffffffffffffffffffffffffffffffffffffff1614611118576040517f08c379a000000000000000000000000000000000000000000000000000000000815260040180806020018281038252602b8152602001806131d1602b913960400191505060405180910390fd5b611122600a611f56565b600061112e600a611f6c565b905061113a8382611f7a565b611144818561216e565b84600b600083815260200190815260200160002081905550809150509392505050565b606060098054600181600116156101000203166002900480601f0160208091040260200160405190810160405280929190818152602001828054600181600116156101000203166002900480156111ff5780601f106111d4576101008083540402835291602001916111ff565b820191906000526020600020905b8154815290600101906020018083116111e257829003601f168201915b5050505050905090565b60008073ffffffffffffffffffffffffffffffffffffffff168273ffffffffffffffffffffffffffffffffffffffff161415611290576040517f08c379a000000000000000000000000000000000000000000000000000000000815260040180806020018281038252602a8152602001806131fc602a913960400191505060405180910390fd5b6112d7600160008473ffffffffffffffffffffffffffffffffffffffff1673ffffffffffffffffffffffffffffffffffffffff1681526020019081526020016000206121f8565b9050919050565b606060078054600181600116156101000203166002900480601f0160208091040260200160405190810160405280929190818152602001828054600181600116156101000203166002900480156113765780601f1061134b57610100808354040283529160200191611376565b820191906000526020600020905b81548152906001019060200180831161135957829003601f168201915b5050505050905090565b611388611a9e565b73ffffffffffffffffffffffffffffffffffffffff168273ffffffffffffffffffffffffffffffffffffffff161415611429576040517f08c379a00000000000000000000000000000000000000000000000000000000081526004018080602001828103825260198152602001807f4552433732313a20617070726f766520746f2063616c6c65720000000000000081525060200191505060405180910390fd5b8060056000611436611a9e565b73ffffffffffffffffffffffffffffffffffffffff1673ffffffffffffffffffffffffffffffffffffffff16815260200190815260200160002060008473ffffffffffffffffffffffffffffffffffffffff1673ffffffffffffffffffffffffffffffffffffffff16815260200190815260200160002060006101000a81548160ff0219169083151502179055508173ffffffffffffffffffffffffffffffffffffffff166114e3611a9e565b73ffffffffffffffffffffffffffffffffffffffff167f17307eab39ab6107e8899845ad3d59bd9653f200f220920489ca2b5937696c318360405180821515815260200191505060405180910390a35050565b611547611541611a9e565b8361220d565b61159c576040517f08c379a00000000000000000000000000000000000000000000000000000000081526004018080602001828103825260318152602001806133426031913960400191505060405180910390fd5b6115a884848484612301565b50505050565b60606115b982611a81565b61160e576040517f08c379a000000000000000000000000000000000000000000000000000000000815260040180806020018281038252602f8152602001806132f2602f913960400191505060405180910390fd5b6000600860008481526020019081526020016000208054600181600116156101000203166002900480601f0160208091040260200160405190810160405280929190818152602001828054600181600116156101000203166002900480156116b75780601f1061168c576101008083540402835291602001916116b7565b820191906000526020600020905b81548152906001019060200180831161169a57829003601f168201915b505050505090506000600980546001816001161561010002031660029004905014156116e65780915050611892565b6000815111156117bf5760098160405160200180838054600181600116156101000203166002900480156117515780601f1061172f576101008083540402835291820191611751565b820191906000526020600020905b81548152906001019060200180831161173d575b505082805190602001908083835b60208310611782578051825260208201915060208101905060208303925061175f565b6001836020036101000a03801982511681845116808217855250505050505090500192505050604051602081830303815290604052915050611892565b60096117ca84612373565b60405160200180838054600181600116156101000203166002900480156118285780601f10611806576101008083540402835291820191611828565b820191906000526020600020905b815481529060010190602001808311611814575b505082805190602001908083835b602083106118595780518252602082019150602081019050602083039250611836565b6001836020036101000a038019825116818451168082178552505050505050905001925050506040516020818303038152906040529150505b919050565b6000600c60009054906101000a900473ffffffffffffffffffffffffffffffffffffffff1673ffffffffffffffffffffffffffffffffffffffff163373ffffffffffffffffffffffffffffffffffffffff161461193f576040517f08c379a000000000000000000000000000000000000000000000000000000000815260040180806020018281038252602d815260200180613373602d913960400191505060405180910390fd5b81600c60006101000a81548173ffffffffffffffffffffffffffffffffffffffff021916908373ffffffffffffffffffffffffffffffffffffffff1602179055503373ffffffffffffffffffffffffffffffffffffffff167f3b0007eb941cf645526cbb3a4fdaecda9d28ce4843167d9263b536a1f1edc0f683604051808273ffffffffffffffffffffffffffffffffffffffff16815260200191505060405180910390a260019050919050565b6000600560008473ffffffffffffffffffffffffffffffffffffffff1673ffffffffffffffffffffffffffffffffffffffff16815260200190815260200160002060008373ffffffffffffffffffffffffffffffffffffffff1673ffffffffffffffffffffffffffffffffffffffff16815260200190815260200160002060009054906101000a900460ff16905092915050565b6000611a978260026124ba90919063ffffffff16565b9050919050565b600033905090565b816004600083815260200190815260200160002060006101000a81548173ffffffffffffffffffffffffffffffffffffffff021916908373ffffffffffffffffffffffffffffffffffffffff160217905550808273ffffffffffffffffffffffffffffffffffffffff16611b1983611039565b73ffffffffffffffffffffffffffffffffffffffff167f8c5be1e5ebec7d5bd14f71427d1e84f3dd0314c0f7b2291e5b200ac8c7c3b92560405160405180910390a45050565b6000611b6d826000016124d4565b9050919050565b8273ffffffffffffffffffffffffffffffffffffffff16611b9482611039565b73ffffffffffffffffffffffffffffffffffffffff1614611c00576040517f08c379a00000000000000000000000000000000000000000000000000000000081526004018080602001828103825260298152602001806132c96029913960400191505060405180910390fd5b600073ffffffffffffffffffffffffffffffffffffffff168273ffffffffffffffffffffffffffffffffffffffff161415611c86576040517f08c379a00000000000000000000000000000000000000000000000000000000081526004018080602001828103825260248152602001806131236024913960400191505060405180910390fd5b611c918383836124e5565b611c9c600082611aa6565b611ced81600160008673ffffffffffffffffffffffffffffffffffffffff1673ffffffffffffffffffffffffffffffffffffffff1681526020019081526020016000206124ea90919063ffffffff16565b50611d3f81600160008573ffffffffffffffffffffffffffffffffffffffff1673ffffffffffffffffffffffffffffffffffffffff16815260200190815260200160002061250490919063ffffffff16565b50611d568183600261251e9092919063ffffffff16565b50808273ffffffffffffffffffffffffffffffffffffffff168473ffffffffffffffffffffffffffffffffffffffff167fddf252ad1be2c89b69c2b068fc378daa952ba7f163c4a11628f55a4df523b3ef60405160405180910390a4505050565b6000611dc282611039565b9050611dd0816000846124e5565b611ddb600083611aa6565b60006008600084815260200190815260200160002080546001816001161561010002031660029004905014611e2a57600860008381526020019081526020016000206000611e299190612fdb565b5b611e7b82600160008473ffffffffffffffffffffffffffffffffffffffff1673ffffffffffffffffffffffffffffffffffffffff1681526020019081526020016000206124ea90919063ffffffff16565b50611e9082600261255390919063ffffffff16565b5081600073ffffffffffffffffffffffffffffffffffffffff168273ffffffffffffffffffffffffffffffffffffffff167fddf252ad1be2c89b69c2b068fc378daa952ba7f163c4a11628f55a4df523b3ef60405160405180910390a45050565b6000611f00836000018361256d565b60001c905092915050565b600080600080611f1e86600001866125f0565b915091508160001c8160001c9350935050509250929050565b6000611f4a846000018460001b84612689565b60001c90509392505050565b6001816000016000828254019250508190555050565b600081600001549050919050565b600073ffffffffffffffffffffffffffffffffffffffff168273ffffffffffffffffffffffffffffffffffffffff16141561201d576040517f08c379a00000000000000000000000000000000000000000000000000000000081526004018080602001828103825260208152602001807f4552433732313a206d696e7420746f20746865207a65726f206164647265737381525060200191505060405180910390fd5b61202681611a81565b15612099576040517f08c379a000000000000000000000000000000000000000000000000000000000815260040180806020018281038252601c8152602001807f4552433732313a20746f6b656e20616c7265616479206d696e7465640000000081525060200191505060405180910390fd5b6120a5600083836124e5565b6120f681600160008573ffffffffffffffffffffffffffffffffffffffff1673ffffffffffffffffffffffffffffffffffffffff16815260200190815260200160002061250490919063ffffffff16565b5061210d8183600261251e9092919063ffffffff16565b50808273ffffffffffffffffffffffffffffffffffffffff16600073ffffffffffffffffffffffffffffffffffffffff167fddf252ad1be2c89b69c2b068fc378daa952ba7f163c4a11628f55a4df523b3ef60405160405180910390a45050565b61217782611a81565b6121cc576040517f08c379a000000000000000000000000000000000000000000000000000000000815260040180806020018281038252602c81526020018061329d602c913960400191505060405180910390fd5b806008600084815260200190815260200160002090805190602001906121f3929190613023565b505050565b60006122068260000161277f565b9050919050565b600061221882611a81565b61226d576040517f08c379a000000000000000000000000000000000000000000000000000000000815260040180806020018281038252602c81526020018061316d602c913960400191505060405180910390fd5b600061227883611039565b90508073ffffffffffffffffffffffffffffffffffffffff168473ffffffffffffffffffffffffffffffffffffffff1614806122e757508373ffffffffffffffffffffffffffffffffffffffff166122cf84610d63565b73ffffffffffffffffffffffffffffffffffffffff16145b806122f857506122f781856119ed565b5b91505092915050565b61230c848484611b74565b61231884848484612790565b61236d576040517f08c379a00000000000000000000000000000000000000000000000000000000081526004018080602001828103825260328152602001806130f16032913960400191505060405180910390fd5b50505050565b606060008214156123bb576040518060400160405280600181526020017f300000000000000000000000000000000000000000000000000000000000000081525090506124b5565b600082905060005b600082146123e5578080600101915050600a82816123dd57fe5b0491506123c3565b60008167ffffffffffffffff811180156123fe57600080fd5b506040519080825280601f01601f1916602001820160405280156124315781602001600182028036833780820191505090505b50905060006001830390508593505b600084146124ad57600a848161245257fe5b0660300160f81b8282806001900393508151811061246c57fe5b60200101907effffffffffffffffffffffffffffffffffffffffffffffffffffffffffffff1916908160001a905350600a84816124a557fe5b049350612440565b819450505050505b919050565b60006124cc836000018360001b6129a9565b905092915050565b600081600001805490509050919050565b505050565b60006124fc836000018360001b6129cc565b905092915050565b6000612516836000018360001b612ab4565b905092915050565b600061254a846000018460001b8473ffffffffffffffffffffffffffffffffffffffff1660001b612b24565b90509392505050565b6000612565836000018360001b612c00565b905092915050565b6000818360000180549050116125ce576040517f08c379a00000000000000000000000000000000000000000000000000000000081526004018080602001828103825260228152602001806130cf6022913960400191505060405180910390fd5b8260000182815481106125dd57fe5b9060005260206000200154905092915050565b60008082846000018054905011612652576040517f08c379a000000000000000000000000000000000000000000000000000000000815260040180806020018281038252602281526020018061324f6022913960400191505060405180910390fd5b600084600001848154811061266357fe5b906000526020600020906002020190508060000154816001015492509250509250929050565b60008084600101600085815260200190815260200160002054905060008114158390612750576040517f08c379a00000000000000000000000000000000000000000000000000000000081526004018080602001828103825283818151815260200191508051906020019080838360005b838110156127155780820151818401526020810190506126fa565b50505050905090810190601f1680156127425780820380516001836020036101000a031916815260200191505b509250505060405180910390fd5b5084600001600182038154811061276357fe5b9060005260206000209060020201600101549150509392505050565b600081600001805490509050919050565b60006127b18473ffffffffffffffffffffffffffffffffffffffff16612d19565b6127be57600190506129a1565b600061292863150b7a0260e01b6127d3611a9e565b888787604051602401808573ffffffffffffffffffffffffffffffffffffffff1681526020018473ffffffffffffffffffffffffffffffffffffffff16815260200183815260200180602001828103825283818151815260200191508051906020019080838360005b8381101561285757808201518184015260208101905061283c565b50505050905090810190601f1680156128845780820380516001836020036101000a031916815260200191505b5095505050505050604051602081830303815290604052907bffffffffffffffffffffffffffffffffffffffffffffffffffffffff19166020820180517bffffffffffffffffffffffffffffffffffffffffffffffffffffffff83818316178352505050506040518060600160405280603281526020016130f1603291398773ffffffffffffffffffffffffffffffffffffffff16612d2c9092919063ffffffff16565b9050600081806020019051602081101561294157600080fd5b8101908080519060200190929190505050905063150b7a0260e01b7bffffffffffffffffffffffffffffffffffffffffffffffffffffffff1916817bffffffffffffffffffffffffffffffffffffffffffffffffffffffff191614925050505b949350505050565b600080836001016000848152602001908152602001600020541415905092915050565b60008083600101600084815260200190815260200160002054905060008114612aa85760006001820390506000600186600001805490500390506000866000018281548110612a1757fe5b9060005260206000200154905080876000018481548110612a3457fe5b9060005260206000200181905550600183018760010160008381526020019081526020016000208190555086600001805480612a6c57fe5b60019003818190600052602060002001600090559055866001016000878152602001908152602001600020600090556001945050505050612aae565b60009150505b92915050565b6000612ac08383612d44565b612b19578260000182908060018154018082558091505060019003906000526020600020016000909190919091505582600001805490508360010160008481526020019081526020016000208190555060019050612b1e565b600090505b92915050565b6000808460010160008581526020019081526020016000205490506000811415612bcb57846000016040518060400160405280868152602001858152509080600181540180825580915050600190039060005260206000209060020201600090919091909150600082015181600001556020820151816001015550508460000180549050856001016000868152602001908152602001600020819055506001915050612bf9565b82856000016001830381548110612bde57fe5b90600052602060002090600202016001018190555060009150505b9392505050565b60008083600101600084815260200190815260200160002054905060008114612d0d5760006001820390506000600186600001805490500390506000866000018281548110612c4b57fe5b9060005260206000209060020201905080876000018481548110612c6b57fe5b9060005260206000209060020201600082015481600001556001820154816001015590505060018301876001016000836000015481526020019081526020016000208190555086600001805480612cbe57fe5b6001900381819060005260206000209060020201600080820160009055600182016000905550509055866001016000878152602001908152602001600020600090556001945050505050612d13565b60009150505b92915050565b600080823b905060008111915050919050565b6060612d3b8484600085612d67565b90509392505050565b600080836001016000848152602001908152602001600020541415905092915050565b606082471015612dc2576040517f08c379a00000000000000000000000000000000000000000000000000000000081526004018080602001828103825260268152602001806131476026913960400191505060405180910390fd5b612dcb85612d19565b612e3d576040517f08c379a000000000000000000000000000000000000000000000000000000000815260040180806020018281038252601d8152602001807f416464726573733a2063616c6c20746f206e6f6e2d636f6e747261637400000081525060200191505060405180910390fd5b6000808673ffffffffffffffffffffffffffffffffffffffff1685876040518082805190602001908083835b60208310612e8c5780518252602082019150602081019050602083039250612e69565b6001836020036101000a03801982511681845116808217855250505050505090500191505060006040518083038185875af1925050503d8060008114612eee576040519150601f19603f3d011682016040523d82523d6000602084013e612ef3565b606091505b5091509150612f03828286612f0f565b92505050949350505050565b60608315612f1f57829050612fd4565b600083511115612f325782518084602001fd5b816040517f08c379a00000000000000000000000000000000000000000000000000000000081526004018080602001828103825283818151815260200191508051906020019080838360005b83811015612f99578082015181840152602081019050612f7e565b50505050905090810190601f168015612fc65780820380516001836020036101000a031916815260200191505b509250505060405180910390fd5b9392505050565b50805460018160011615610100020316600290046000825580601f106130015750613020565b601f01602090049060005260206000209081019061301f91906130b1565b5b50565b828054600181600116156101000203166002900490600052602060002090601f01602090048101928261305957600085556130a0565b82601f1061307257805160ff19168380011785556130a0565b828001600101855582156130a0579182015b8281111561309f578251825591602001919060010190613084565b5b5090506130ad91906130b1565b5090565b5b808211156130ca5760008160009055506001016130b2565b509056fe456e756d657261626c655365743a20696e646578206f7574206f6620626f756e64734552433732313a207472616e7366657220746f206e6f6e20455243373231526563656976657220696d706c656d656e7465724552433732313a207472616e7366657220746f20746865207a65726f2061646472657373416464726573733a20696e73756666696369656e742062616c616e636520666f722063616c6c4552433732313a206f70657261746f7220717565727920666f72206e6f6e6578697374656e7420746f6b656e4552433732313a20617070726f76652063616c6c6572206973206e6f74206f776e6572206e6f7220617070726f76656420666f7220616c6c4572726f722c206d73672e73656e64657220646f6573206e6f742068617665206d696e74657220726f6c654552433732313a2062616c616e636520717565727920666f7220746865207a65726f20616464726573734552433732313a206f776e657220717565727920666f72206e6f6e6578697374656e7420746f6b656e456e756d657261626c654d61703a20696e646578206f7574206f6620626f756e64734552433732313a20617070726f76656420717565727920666f72206e6f6e6578697374656e7420746f6b656e4552433732314d657461646174613a2055524920736574206f66206e6f6e6578697374656e7420746f6b656e4552433732313a207472616e73666572206f6620746f6b656e2074686174206973206e6f74206f776e4552433732314d657461646174613a2055524920717565727920666f72206e6f6e6578697374656e7420746f6b656e4552433732313a20617070726f76616c20746f2063757272656e74206f776e65724552433732313a207472616e736665722063616c6c6572206973206e6f74206f776e6572206e6f7220617070726f7665644572726f722c206f6e6c79206f776e65722063616e206368616e67652070617373206d696e74657220726f6c65a26469706673582212207fab364cd9dbd85fb10a6c23f015bf5437f7c38122749282827cee6aba9fb5cf64736f6c63430007060033",
  "immutableReferences": {},
  "source": "// SPDX-License-Identifier: MIT\r\npragma solidity >=0.6.0 <0.8.0;\r\n\r\nimport \"@openzeppelin/contracts/token/ERC721/ERC721.sol\";\r\nimport \"@openzeppelin/contracts/utils/Counters.sol\";\r\n\r\ncontract Token is ERC721 {\r\n   using Counters for Counters.Counter;\r\n   Counters.Counter private _tokenIds;\r\n   mapping(uint256 => uint256) public NFTPrices;\r\n\r\n  address public minter;\r\n  event MinterChanged(address indexed from, address to);\r\n\r\n   constructor() public ERC721(\"BarakaNFT\", \"BNFT\") {\r\n         minter = msg.sender;\r\n   }\r\n\r\n   function mintNFT(uint price,string memory tokenURI,  address creator) public returns (uint256) {\r\n       require(msg.sender == minter, \"Error, msg.sender does not have minter role\");\r\n       _tokenIds.increment();\r\n       uint256 newItemId = _tokenIds.current();\r\n       _mint(creator, newItemId);\r\n       _setTokenURI(newItemId, tokenURI);\r\n       NFTPrices[newItemId] = price;\r\n       return newItemId;\r\n   }\r\n\r\n   function buyNFT(address from, address to, uint256 tokenId) public payable returns(bool) {\r\n      transferFrom(from, to ,tokenId);\r\n   }\r\n\r\n   function burnNFT(uint256 tokenId) public {\r\n     _burn(tokenId);\r\n   }\r\n\r\n  function transferFrom(address from, address to, uint256 tokenId) public virtual override {\r\n        _transfer(from, to, tokenId);\r\n    }\r\n\r\n     function passMinterRole(address NFTApp) public returns(bool) {\r\n    require(msg.sender == minter, \"Error, only owner can change pass minter role\");\r\n    minter = NFTApp;\r\n    emit MinterChanged(msg.sender, NFTApp);\r\n    return true;\r\n  }\r\n\r\n}",
  "sourcePath": "D:\\DOSYALARIM\\Kodlar\\nft\\src\\contracts\\Token.sol",
  "compiler": {
    "name": "solc",
    "version": "0.7.6+commit.7338295f.Emscripten.clang"
  },
  "schemaVersion": "3.4.3",
  "updatedAt": "2021-09-24T09:07:54.576Z",
  "devdoc": {
    "kind": "dev",
    "methods": {
      "approve(address,uint256)": {
        "details": "See {IERC721-approve}."
      },
      "balanceOf(address)": {
        "details": "See {IERC721-balanceOf}."
      },
      "baseURI()": {
        "details": "Returns the base URI set via {_setBaseURI}. This will be automatically added as a prefix in {tokenURI} to each token's URI, or to the token ID if no specific URI is set for that token ID."
      },
      "getApproved(uint256)": {
        "details": "See {IERC721-getApproved}."
      },
      "isApprovedForAll(address,address)": {
        "details": "See {IERC721-isApprovedForAll}."
      },
      "name()": {
        "details": "See {IERC721Metadata-name}."
      },
      "ownerOf(uint256)": {
        "details": "See {IERC721-ownerOf}."
      },
      "safeTransferFrom(address,address,uint256)": {
        "details": "See {IERC721-safeTransferFrom}."
      },
      "safeTransferFrom(address,address,uint256,bytes)": {
        "details": "See {IERC721-safeTransferFrom}."
      },
      "setApprovalForAll(address,bool)": {
        "details": "See {IERC721-setApprovalForAll}."
      },
      "supportsInterface(bytes4)": {
        "details": "See {IERC165-supportsInterface}. Time complexity O(1), guaranteed to always use less than 30 000 gas."
      },
      "symbol()": {
        "details": "See {IERC721Metadata-symbol}."
      },
      "tokenByIndex(uint256)": {
        "details": "See {IERC721Enumerable-tokenByIndex}."
      },
      "tokenOfOwnerByIndex(address,uint256)": {
        "details": "See {IERC721Enumerable-tokenOfOwnerByIndex}."
      },
      "tokenURI(uint256)": {
        "details": "See {IERC721Metadata-tokenURI}."
      },
      "totalSupply()": {
        "details": "See {IERC721Enumerable-totalSupply}."
      },
      "transferFrom(address,address,uint256)": {
        "details": "See {IERC721-transferFrom}."
      }
    },
    "version": 1
  },
  "userdoc": {
    "kind": "user",
    "methods": {},
    "version": 1
  }
}